{
  "_format": "hh-sol-artifact-1",
  "contractName": "NFTs",
  "sourceName": "contracts/NFTs.sol",
  "abi": [
    {
      "anonymous": false,
      "inputs": [
        {
          "indexed": true,
          "internalType": "address",
          "name": "_from",
          "type": "address"
        },
        {
          "indexed": true,
          "internalType": "address",
          "name": "_to",
          "type": "address"
        },
        {
          "indexed": false,
          "internalType": "uint256",
          "name": "_value",
          "type": "uint256"
        }
      ],
      "name": "Transfer",
      "type": "event"
    },
    {
      "inputs": [
        {
          "internalType": "uint256",
          "name": "index",
          "type": "uint256"
        }
      ],
      "name": "getNFT",
      "outputs": [
        {
          "components": [
            {
              "internalType": "uint256",
              "name": "id",
              "type": "uint256"
            },
            {
              "internalType": "address",
              "name": "creator",
              "type": "address"
            },
            {
              "internalType": "address",
              "name": "owner",
              "type": "address"
            },
            {
              "internalType": "uint256",
              "name": "price",
              "type": "uint256"
            },
            {
              "internalType": "string",
              "name": "url",
              "type": "string"
            },
            {
              "internalType": "string",
              "name": "title",
              "type": "string"
            },
            {
              "internalType": "string",
              "name": "description",
              "type": "string"
            }
          ],
          "internalType": "struct NFTs.NFT",
          "name": "",
          "type": "tuple"
        }
      ],
      "stateMutability": "view",
      "type": "function"
    },
    {
      "inputs": [],
      "name": "getNFTCount",
      "outputs": [
        {
          "internalType": "uint256",
          "name": "",
          "type": "uint256"
        }
      ],
      "stateMutability": "view",
      "type": "function"
    },
    {
      "inputs": [
        {
          "internalType": "uint256",
          "name": "nftID",
          "type": "uint256"
        },
        {
          "internalType": "uint256",
          "name": "saleID",
          "type": "uint256"
        }
      ],
      "name": "getSale",
      "outputs": [
        {
          "components": [
            {
              "internalType": "uint256",
              "name": "id",
              "type": "uint256"
            },
            {
              "internalType": "uint256",
              "name": "nft",
              "type": "uint256"
            },
            {
              "internalType": "address",
              "name": "seller",
              "type": "address"
            },
            {
              "internalType": "address",
              "name": "buyer",
              "type": "address"
            },
            {
              "internalType": "uint256",
              "name": "price",
              "type": "uint256"
            }
          ],
          "internalType": "struct NFTs.Sale",
          "name": "",
          "type": "tuple"
        }
      ],
      "stateMutability": "view",
      "type": "function"
    },
    {
      "inputs": [
        {
          "internalType": "uint256",
          "name": "nftID",
          "type": "uint256"
        }
      ],
      "name": "getSalesCount",
      "outputs": [
        {
          "internalType": "uint256",
          "name": "",
          "type": "uint256"
        }
      ],
      "stateMutability": "view",
      "type": "function"
    },
    {
      "inputs": [
        {
          "internalType": "uint256",
          "name": "_price",
          "type": "uint256"
        },
        {
          "internalType": "string",
          "name": "_url",
          "type": "string"
        },
        {
          "internalType": "string",
          "name": "_title",
          "type": "string"
        },
        {
          "internalType": "string",
          "name": "_description",
          "type": "string"
        }
      ],
      "name": "mintNFT",
      "outputs": [],
      "stateMutability": "nonpayable",
      "type": "function"
    },
    {
      "inputs": [],
      "name": "nftCount",
      "outputs": [
        {
          "internalType": "uint256",
          "name": "",
          "type": "uint256"
        }
      ],
      "stateMutability": "view",
      "type": "function"
    },
    {
      "inputs": [
        {
          "internalType": "uint256",
          "name": "",
          "type": "uint256"
        }
      ],
      "name": "nfts",
      "outputs": [
        {
          "internalType": "uint256",
          "name": "id",
          "type": "uint256"
        },
        {
          "internalType": "address",
          "name": "creator",
          "type": "address"
        },
        {
          "internalType": "address",
          "name": "owner",
          "type": "address"
        },
        {
          "internalType": "uint256",
          "name": "price",
          "type": "uint256"
        },
        {
          "internalType": "string",
          "name": "url",
          "type": "string"
        },
        {
          "internalType": "string",
          "name": "title",
          "type": "string"
        },
        {
          "internalType": "string",
          "name": "description",
          "type": "string"
        }
      ],
      "stateMutability": "view",
      "type": "function"
    },
    {
      "inputs": [
        {
          "internalType": "uint256",
          "name": "",
          "type": "uint256"
        }
      ],
      "name": "saleCount",
      "outputs": [
        {
          "internalType": "uint256",
          "name": "",
          "type": "uint256"
        }
      ],
      "stateMutability": "view",
      "type": "function"
    },
    {
      "inputs": [
        {
          "internalType": "uint256",
          "name": "",
          "type": "uint256"
        },
        {
          "internalType": "uint256",
          "name": "",
          "type": "uint256"
        }
      ],
      "name": "sales",
      "outputs": [
        {
          "internalType": "uint256",
          "name": "id",
          "type": "uint256"
        },
        {
          "internalType": "uint256",
          "name": "nft",
          "type": "uint256"
        },
        {
          "internalType": "address",
          "name": "seller",
          "type": "address"
        },
        {
          "internalType": "address",
          "name": "buyer",
          "type": "address"
        },
        {
          "internalType": "uint256",
          "name": "price",
          "type": "uint256"
        }
      ],
      "stateMutability": "view",
      "type": "function"
    },
    {
      "inputs": [
        {
          "internalType": "uint256",
          "name": "nft",
          "type": "uint256"
        },
        {
          "internalType": "address payable",
          "name": "seller",
          "type": "address"
        },
        {
          "internalType": "uint256",
          "name": "price",
          "type": "uint256"
        }
      ],
      "name": "transfer",
      "outputs": [
        {
          "internalType": "bool",
          "name": "",
          "type": "bool"
        }
      ],
      "stateMutability": "nonpayable",
      "type": "function"
    }
  ],
  "bytecode": "0x60806040526000805534801561001457600080fd5b50611480806100246000396000f3fe608060405234801561001057600080fd5b506004361061009e5760003560e01c8063c53fd38e11610066578063c53fd38e14610175578063c75c5970146101a9578063f575f77c146101d9578063f8548e3614610209578063fac701a5146102395761009e565b80630af2c6ca146100a3578063265aa621146100c157806354279637146100f757806354a3f2b114610115578063576f7ea714610145575b600080fd5b6100ab610255565b6040516100b891906111ed565b60405180910390f35b6100db60048036038101906100d69190610e67565b61025b565b6040516100ee9796959493929190611208565b60405180910390f35b6100ff6104a5565b60405161010c91906111ed565b60405180910390f35b61012f600480360381019061012a9190610e67565b6104ae565b60405161013c91906111ed565b60405180910390f35b61015f600480360381019061015a9190610e67565b6104cb565b60405161016c91906111b0565b60405180910390f35b61018f600480360381019061018a9190610f8a565b61079e565b6040516101a095949392919061128c565b60405180910390f35b6101c360048036038101906101be9190610f8a565b610821565b6040516101d091906111d2565b60405180910390f35b6101f360048036038101906101ee9190610e67565b61092a565b60405161020091906111ed565b60405180910390f35b610223600480360381019061021e9190610e90565b610942565b6040516102309190611195565b60405180910390f35b610253600480360381019061024e9190610edf565b610b00565b005b60005481565b60016020528060005260406000206000915090508060000154908060010160009054906101000a900473ffffffffffffffffffffffffffffffffffffffff16908060020160009054906101000a900473ffffffffffffffffffffffffffffffffffffffff1690806003015490806004018054600181600116156101000203166002900480601f01602080910402602001604051908101604052809291908181526020018280546001816001161561010002031660029004801561035f5780601f106103345761010080835404028352916020019161035f565b820191906000526020600020905b81548152906001019060200180831161034257829003601f168201915b505050505090806005018054600181600116156101000203166002900480601f0160208091040260200160405190810160405280929190818152602001828054600181600116156101000203166002900480156103fd5780601f106103d2576101008083540402835291602001916103fd565b820191906000526020600020905b8154815290600101906020018083116103e057829003601f168201915b505050505090806006018054600181600116156101000203166002900480601f01602080910402602001604051908101604052809291908181526020018280546001816001161561010002031660029004801561049b5780601f106104705761010080835404028352916020019161049b565b820191906000526020600020905b81548152906001019060200180831161047e57829003601f168201915b5050505050905087565b60008054905090565b600060036000838152602001908152602001600020549050919050565b6104d3610c88565b600160008381526020019081526020016000206040518060e0016040529081600082015481526020016001820160009054906101000a900473ffffffffffffffffffffffffffffffffffffffff1673ffffffffffffffffffffffffffffffffffffffff1673ffffffffffffffffffffffffffffffffffffffff1681526020016002820160009054906101000a900473ffffffffffffffffffffffffffffffffffffffff1673ffffffffffffffffffffffffffffffffffffffff1673ffffffffffffffffffffffffffffffffffffffff16815260200160038201548152602001600482018054600181600116156101000203166002900480601f01602080910402602001604051908101604052809291908181526020018280546001816001161561010002031660029004801561064a5780601f1061061f5761010080835404028352916020019161064a565b820191906000526020600020905b81548152906001019060200180831161062d57829003601f168201915b50505050508152602001600582018054600181600116156101000203166002900480601f0160208091040260200160405190810160405280929190818152602001828054600181600116156101000203166002900480156106ec5780601f106106c1576101008083540402835291602001916106ec565b820191906000526020600020905b8154815290600101906020018083116106cf57829003601f168201915b50505050508152602001600682018054600181600116156101000203166002900480601f01602080910402602001604051908101604052809291908181526020018280546001816001161561010002031660029004801561078e5780601f106107635761010080835404028352916020019161078e565b820191906000526020600020905b81548152906001019060200180831161077157829003601f168201915b5050505050815250509050919050565b6002602052816000526040600020602052806000526040600020600091509150508060000154908060010154908060020160009054906101000a900473ffffffffffffffffffffffffffffffffffffffff16908060030160009054906101000a900473ffffffffffffffffffffffffffffffffffffffff16908060040154905085565b610829610cf1565b6002600084815260200190815260200160002060008381526020019081526020016000206040518060a001604052908160008201548152602001600182015481526020016002820160009054906101000a900473ffffffffffffffffffffffffffffffffffffffff1673ffffffffffffffffffffffffffffffffffffffff1673ffffffffffffffffffffffffffffffffffffffff1681526020016003820160009054906101000a900473ffffffffffffffffffffffffffffffffffffffff1673ffffffffffffffffffffffffffffffffffffffff1673ffffffffffffffffffffffffffffffffffffffff168152602001600482015481525050905092915050565b60036020528060005260406000206000915090505481565b600080600360008681526020019081526020016000205490508080600101915060036000878152602001908152602001600020819055506040518060a001604052808281526020018681526020018573ffffffffffffffffffffffffffffffffffffffff1681526020013373ffffffffffffffffffffffffffffffffffffffff16815260200184815250600260008781526020019081526020016000206000838152602001908152602001600020600082015181600001556020820151816001015560408201518160020160006101000a81548173ffffffffffffffffffffffffffffffffffffffff021916908373ffffffffffffffffffffffffffffffffffffffff16021790555060608201518160030160006101000a81548173ffffffffffffffffffffffffffffffffffffffff021916908373ffffffffffffffffffffffffffffffffffffffff16021790555060808201518160040155905050336001600087815260200190815260200160002060020160006101000a81548173ffffffffffffffffffffffffffffffffffffffff021916908373ffffffffffffffffffffffffffffffffffffffff16021790555060019150509392505050565b60008081548092919060010191905055506040518060e0016040528060005481526020013373ffffffffffffffffffffffffffffffffffffffff1681526020013373ffffffffffffffffffffffffffffffffffffffff1681526020018581526020018481526020018381526020018281525060016000805481526020019081526020016000206000820151816000015560208201518160010160006101000a81548173ffffffffffffffffffffffffffffffffffffffff021916908373ffffffffffffffffffffffffffffffffffffffff16021790555060408201518160020160006101000a81548173ffffffffffffffffffffffffffffffffffffffff021916908373ffffffffffffffffffffffffffffffffffffffff160217905550606082015181600301556080820151816004019080519060200190610c44929190610d4c565b5060a0820151816005019080519060200190610c61929190610d4c565b5060c0820151816006019080519060200190610c7e929190610d4c565b5090505050505050565b6040518060e0016040528060008152602001600073ffffffffffffffffffffffffffffffffffffffff168152602001600073ffffffffffffffffffffffffffffffffffffffff168152602001600081526020016060815260200160608152602001606081525090565b6040518060a001604052806000815260200160008152602001600073ffffffffffffffffffffffffffffffffffffffff168152602001600073ffffffffffffffffffffffffffffffffffffffff168152602001600081525090565b828054600181600116156101000203166002900490600052602060002090601f016020900481019282601f10610d8d57805160ff1916838001178555610dbb565b82800160010185558215610dbb579182015b82811115610dba578251825591602001919060010190610d9f565b5b509050610dc89190610dcc565b5090565b5b80821115610de5576000816000905550600101610dcd565b5090565b600081359050610df88161141c565b92915050565b600082601f830112610e0f57600080fd5b8135610e22610e1d82611310565b6112df565b91508082526020830160208301858383011115610e3e57600080fd5b610e498382846113c7565b50505092915050565b600081359050610e6181611433565b92915050565b600060208284031215610e7957600080fd5b6000610e8784828501610e52565b91505092915050565b600080600060608486031215610ea557600080fd5b6000610eb386828701610e52565b9350506020610ec486828701610de9565b9250506040610ed586828701610e52565b9150509250925092565b60008060008060808587031215610ef557600080fd5b6000610f0387828801610e52565b945050602085013567ffffffffffffffff811115610f2057600080fd5b610f2c87828801610dfe565b935050604085013567ffffffffffffffff811115610f4957600080fd5b610f5587828801610dfe565b925050606085013567ffffffffffffffff811115610f7257600080fd5b610f7e87828801610dfe565b91505092959194509250565b60008060408385031215610f9d57600080fd5b6000610fab85828601610e52565b9250506020610fbc85828601610e52565b9150509250929050565b610fcf8161136d565b82525050565b610fde8161136d565b82525050565b610fed81611391565b82525050565b6000610ffe82611340565b611008818561134b565b93506110188185602086016113d6565b6110218161140b565b840191505092915050565b600061103782611340565b611041818561135c565b93506110518185602086016113d6565b61105a8161140b565b840191505092915050565b600060e08301600083015161107d6000860182611177565b5060208301516110906020860182610fc6565b5060408301516110a36040860182610fc6565b5060608301516110b66060860182611177565b50608083015184820360808601526110ce8282610ff3565b91505060a083015184820360a08601526110e88282610ff3565b91505060c083015184820360c08601526111028282610ff3565b9150508091505092915050565b60a0820160008201516111256000850182611177565b5060208201516111386020850182611177565b50604082015161114b6040850182610fc6565b50606082015161115e6060850182610fc6565b5060808201516111716080850182611177565b50505050565b611180816113bd565b82525050565b61118f816113bd565b82525050565b60006020820190506111aa6000830184610fe4565b92915050565b600060208201905081810360008301526111ca8184611065565b905092915050565b600060a0820190506111e7600083018461110f565b92915050565b60006020820190506112026000830184611186565b92915050565b600060e08201905061121d600083018a611186565b61122a6020830189610fd5565b6112376040830188610fd5565b6112446060830187611186565b8181036080830152611256818661102c565b905081810360a083015261126a818561102c565b905081810360c083015261127e818461102c565b905098975050505050505050565b600060a0820190506112a16000830188611186565b6112ae6020830187611186565b6112bb6040830186610fd5565b6112c86060830185610fd5565b6112d56080830184611186565b9695505050505050565b6000604051905081810181811067ffffffffffffffff8211171561130657611305611409565b5b8060405250919050565b600067ffffffffffffffff82111561132b5761132a611409565b5b601f19601f8301169050602081019050919050565b600081519050919050565b600082825260208201905092915050565b600082825260208201905092915050565b60006113788261139d565b9050919050565b600061138a8261139d565b9050919050565b60008115159050919050565b600073ffffffffffffffffffffffffffffffffffffffff82169050919050565b6000819050919050565b82818337600083830152505050565b60005b838110156113f45780820151818401526020810190506113d9565b83811115611403576000848401525b50505050565bfe5b6000601f19601f8301169050919050565b6114258161137f565b811461143057600080fd5b50565b61143c816113bd565b811461144757600080fd5b5056fea2646970667358221220a558c9345f9cf6bdba74b38ac75acf8442d20cb508554cc7b0c654ed190a755364736f6c63430007030033",
  "linkReferences": {},
  "deployedLinkReferences": {}
}