{
  "contractName": "Complaints",
  "abi": [
    {
      "inputs": [],
      "stateMutability": "nonpayable",
      "type": "constructor"
    },
    {
      "inputs": [
        {
          "internalType": "uint256",
          "name": "",
          "type": "uint256"
        }
      ],
      "name": "complaints",
      "outputs": [
        {
          "internalType": "uint256",
          "name": "id",
          "type": "uint256"
        },
        {
          "internalType": "address",
          "name": "complainantAddress",
          "type": "address"
        },
        {
          "internalType": "string",
          "name": "title",
          "type": "string"
        },
        {
          "internalType": "string",
          "name": "complainant",
          "type": "string"
        },
        {
          "internalType": "string",
          "name": "contact",
          "type": "string"
        },
        {
          "internalType": "string",
          "name": "details",
          "type": "string"
        },
        {
          "internalType": "string",
          "name": "progress",
          "type": "string"
        },
        {
          "internalType": "uint256",
          "name": "date",
          "type": "uint256"
        },
        {
          "internalType": "uint256",
          "name": "numDoc",
          "type": "uint256"
        },
        {
          "internalType": "bool",
          "name": "isAssigned",
          "type": "bool"
        },
        {
          "internalType": "address",
          "name": "assignedTo",
          "type": "address"
        }
      ],
      "stateMutability": "view",
      "type": "function",
      "constant": true
    },
    {
      "inputs": [],
      "name": "complaintsCount",
      "outputs": [
        {
          "internalType": "uint256",
          "name": "",
          "type": "uint256"
        }
      ],
      "stateMutability": "view",
      "type": "function",
      "constant": true
    },
    {
      "inputs": [],
      "name": "documentsCount",
      "outputs": [
        {
          "internalType": "uint256",
          "name": "",
          "type": "uint256"
        }
      ],
      "stateMutability": "view",
      "type": "function",
      "constant": true
    },
    {
      "inputs": [],
      "name": "manager",
      "outputs": [
        {
          "internalType": "address",
          "name": "",
          "type": "address"
        }
      ],
      "stateMutability": "view",
      "type": "function",
      "constant": true
    },
    {
      "inputs": [
        {
          "internalType": "address",
          "name": "",
          "type": "address"
        },
        {
          "internalType": "uint256",
          "name": "",
          "type": "uint256"
        }
      ],
      "name": "officers",
      "outputs": [
        {
          "internalType": "bool",
          "name": "",
          "type": "bool"
        }
      ],
      "stateMutability": "view",
      "type": "function",
      "constant": true
    },
    {
      "inputs": [
        {
          "internalType": "uint256",
          "name": "index",
          "type": "uint256"
        }
      ],
      "name": "getComplaint",
      "outputs": [
        {
          "components": [
            {
              "internalType": "uint256",
              "name": "id",
              "type": "uint256"
            },
            {
              "internalType": "address",
              "name": "complainantAddress",
              "type": "address"
            },
            {
              "internalType": "string",
              "name": "title",
              "type": "string"
            },
            {
              "internalType": "string",
              "name": "complainant",
              "type": "string"
            },
            {
              "internalType": "string",
              "name": "contact",
              "type": "string"
            },
            {
              "internalType": "string",
              "name": "details",
              "type": "string"
            },
            {
              "internalType": "string",
              "name": "progress",
              "type": "string"
            },
            {
              "internalType": "uint256",
              "name": "date",
              "type": "uint256"
            },
            {
              "internalType": "uint256",
              "name": "numDoc",
              "type": "uint256"
            },
            {
              "internalType": "bool",
              "name": "isAssigned",
              "type": "bool"
            },
            {
              "internalType": "address",
              "name": "assignedTo",
              "type": "address"
            }
          ],
          "internalType": "struct Complaints.Complaint",
          "name": "",
          "type": "tuple"
        }
      ],
      "stateMutability": "view",
      "type": "function",
      "constant": true
    },
    {
      "inputs": [
        {
          "internalType": "uint256",
          "name": "complaint",
          "type": "uint256"
        }
      ],
      "name": "isAssigned",
      "outputs": [
        {
          "internalType": "bool",
          "name": "",
          "type": "bool"
        }
      ],
      "stateMutability": "view",
      "type": "function",
      "constant": true
    },
    {
      "inputs": [],
      "name": "isOfficer",
      "outputs": [
        {
          "internalType": "bool",
          "name": "",
          "type": "bool"
        }
      ],
      "stateMutability": "view",
      "type": "function",
      "constant": true
    },
    {
      "inputs": [],
      "name": "authenticate",
      "outputs": [
        {
          "internalType": "bool",
          "name": "",
          "type": "bool"
        }
      ],
      "stateMutability": "view",
      "type": "function",
      "constant": true
    },
    {
      "inputs": [],
      "name": "readComplaintsCount",
      "outputs": [
        {
          "internalType": "uint256",
          "name": "",
          "type": "uint256"
        }
      ],
      "stateMutability": "view",
      "type": "function",
      "constant": true
    },
    {
      "inputs": [
        {
          "internalType": "string",
          "name": "_title",
          "type": "string"
        },
        {
          "internalType": "string",
          "name": "_complainant",
          "type": "string"
        },
        {
          "internalType": "string",
          "name": "_details",
          "type": "string"
        },
        {
          "internalType": "string",
          "name": "_contact",
          "type": "string"
        }
      ],
      "name": "createComplaint",
      "outputs": [],
      "stateMutability": "nonpayable",
      "type": "function"
    },
    {
      "inputs": [
        {
          "internalType": "uint256",
          "name": "index",
          "type": "uint256"
        },
        {
          "internalType": "string",
          "name": "_progress",
          "type": "string"
        }
      ],
      "name": "addProgress",
      "outputs": [],
      "stateMutability": "nonpayable",
      "type": "function"
    },
    {
      "inputs": [
        {
          "internalType": "uint256",
          "name": "complaint",
          "type": "uint256"
        },
        {
          "internalType": "address",
          "name": "officer",
          "type": "address"
        }
      ],
      "name": "assignOfficer",
      "outputs": [],
      "stateMutability": "nonpayable",
      "type": "function"
    },
    {
      "inputs": [
        {
          "internalType": "uint256",
          "name": "complaint",
          "type": "uint256"
        },
        {
          "internalType": "string",
          "name": "_name",
          "type": "string"
        },
        {
          "internalType": "string",
          "name": "_url",
          "type": "string"
        }
      ],
      "name": "addDocument",
      "outputs": [],
      "stateMutability": "nonpayable",
      "type": "function"
    },
    {
      "inputs": [
        {
          "internalType": "uint256",
          "name": "complaint",
          "type": "uint256"
        },
        {
          "internalType": "uint256",
          "name": "document",
          "type": "uint256"
        }
      ],
      "name": "getDocument",
      "outputs": [
        {
          "components": [
            {
              "internalType": "string",
              "name": "name",
              "type": "string"
            },
            {
              "internalType": "string",
              "name": "url",
              "type": "string"
            }
          ],
          "internalType": "struct Complaints.Document",
          "name": "",
          "type": "tuple"
        }
      ],
      "stateMutability": "view",
      "type": "function",
      "constant": true
    }
  ],
  "bytecode": "0x608060405260008055600060015534801561001957600080fd5b5033600560006101000a81548173ffffffffffffffffffffffffffffffffffffffff021916908373ffffffffffffffffffffffffffffffffffffffff160217905550611f998061006a6000396000f3fe608060405234801561001057600080fd5b50600436106100f55760003560e01c806383c0c8831161009757806395e52d981161006657806395e52d98146102905780639f3dc756146102ae578063dee8ae43146102cc578063fb8ffa5a146102fc576100f5565b806383c0c883146102085780638a1fa8a6146102245780638e98209b146102545780639521494714610272576100f5565b8063380c7a67116100d3578063380c7a6714610176578063481c6a75146101945780636abff1d0146101b25780637e69e912146101ce576100f5565b80630504e066146100fa5780630f41adee146101165780630f53ce0114610146575b600080fd5b610114600480360381019061010f91906115c2565b610318565b005b610130600480360381019061012b91906116cf565b61055f565b60405161013d9190611717565b60405180910390f35b610160600480360381019061015b9190611732565b6105c6565b60405161016d919061183e565b60405180910390f35b61017e610729565b60405161018b9190611717565b60405180910390f35b61019c610781565b6040516101a991906118a1565b60405180910390f35b6101cc60048036038101906101c791906118bc565b6107a7565b005b6101e860048036038101906101e391906116cf565b610875565b6040516101ff9b9a99989796959493929190611971565b60405180910390f35b610222600480360381019061021d9190611a3f565b610bc4565b005b61023e60048036038101906102399190611af6565b610cfb565b60405161024b9190611717565b60405180910390f35b61025c610d2a565b6040516102699190611717565b60405180910390f35b61027a610d7e565b6040516102879190611b36565b60405180910390f35b610298610d87565b6040516102a59190611b36565b60405180910390f35b6102b6610d8d565b6040516102c39190611b36565b60405180910390f35b6102e660048036038101906102e191906116cf565b610d93565b6040516102f39190611c89565b60405180910390f35b61031660048036038101906103119190611cab565b611180565b005b60008081548092919061032a90611d1a565b919050555060405180610160016040528060005481526020013373ffffffffffffffffffffffffffffffffffffffff1681526020018581526020018481526020018281526020018381526020016040518060400160405280600a81526020017f52656769737465726564000000000000000000000000000000000000000000008152508152602001428152602001600081526020016000151581526020013373ffffffffffffffffffffffffffffffffffffffff1681525060026000805481526020019081526020016000206000820151816000015560208201518160010160006101000a81548173ffffffffffffffffffffffffffffffffffffffff021916908373ffffffffffffffffffffffffffffffffffffffff1602179055506040820151816002019080519060200190610463929190611323565b506060820151816003019080519060200190610480929190611323565b50608082015181600401908051906020019061049d929190611323565b5060a08201518160050190805190602001906104ba929190611323565b5060c08201518160060190805190602001906104d7929190611323565b5060e0820151816007015561010082015181600801556101208201518160090160006101000a81548160ff0219169083151502179055506101408201518160090160016101000a81548173ffffffffffffffffffffffffffffffffffffffff021916908373ffffffffffffffffffffffffffffffffffffffff16021790555090505050505050565b6000600660003373ffffffffffffffffffffffffffffffffffffffff1673ffffffffffffffffffffffffffffffffffffffff168152602001908152602001600020600083815260200190815260200160002060009054906101000a900460ff169050919050565b6105ce6113a9565b60036000848152602001908152602001600020600083815260200190815260200160002060405180604001604052908160008201805461060d90611d91565b80601f016020809104026020016040519081016040528092919081815260200182805461063990611d91565b80156106865780601f1061065b57610100808354040283529160200191610686565b820191906000526020600020905b81548152906001019060200180831161066957829003601f168201915b5050505050815260200160018201805461069f90611d91565b80601f01602080910402602001604051908101604052809291908181526020018280546106cb90611d91565b80156107185780601f106106ed57610100808354040283529160200191610718565b820191906000526020600020905b8154815290600101906020018083116106fb57829003601f168201915b505050505081525050905092915050565b6000600560009054906101000a900473ffffffffffffffffffffffffffffffffffffffff1673ffffffffffffffffffffffffffffffffffffffff163373ffffffffffffffffffffffffffffffffffffffff1614905090565b600560009054906101000a900473ffffffffffffffffffffffffffffffffffffffff1681565b81600660003373ffffffffffffffffffffffffffffffffffffffff1673ffffffffffffffffffffffffffffffffffffffff168152602001908152602001600020600082815260200190815260200160002060009054906101000a900460ff1661080f57600080fd5b6002600084815260200190815260200160002060060182604051602001610837929190611ede565b60405160208183030381529060405260026000858152602001908152602001600020600601908051906020019061086f929190611323565b50505050565b60026020528060005260406000206000915090508060000154908060010160009054906101000a900473ffffffffffffffffffffffffffffffffffffffff16908060020180546108c490611d91565b80601f01602080910402602001604051908101604052809291908181526020018280546108f090611d91565b801561093d5780601f106109125761010080835404028352916020019161093d565b820191906000526020600020905b81548152906001019060200180831161092057829003601f168201915b50505050509080600301805461095290611d91565b80601f016020809104026020016040519081016040528092919081815260200182805461097e90611d91565b80156109cb5780601f106109a0576101008083540402835291602001916109cb565b820191906000526020600020905b8154815290600101906020018083116109ae57829003601f168201915b5050505050908060040180546109e090611d91565b80601f0160208091040260200160405190810160405280929190818152602001828054610a0c90611d91565b8015610a595780601f10610a2e57610100808354040283529160200191610a59565b820191906000526020600020905b815481529060010190602001808311610a3c57829003601f168201915b505050505090806005018054610a6e90611d91565b80601f0160208091040260200160405190810160405280929190818152602001828054610a9a90611d91565b8015610ae75780601f10610abc57610100808354040283529160200191610ae7565b820191906000526020600020905b815481529060010190602001808311610aca57829003601f168201915b505050505090806006018054610afc90611d91565b80601f0160208091040260200160405190810160405280929190818152602001828054610b2890611d91565b8015610b755780601f10610b4a57610100808354040283529160200191610b75565b820191906000526020600020905b815481529060010190602001808311610b5857829003601f168201915b5050505050908060070154908060080154908060090160009054906101000a900460ff16908060090160019054906101000a900473ffffffffffffffffffffffffffffffffffffffff1690508b565b82600660003373ffffffffffffffffffffffffffffffffffffffff1673ffffffffffffffffffffffffffffffffffffffff168152602001908152602001600020600082815260200190815260200160002060009054906101000a900460ff16610c2c57600080fd5b60016002600086815260200190815260200160002060080154610c4f9190611f0d565b6002600086815260200190815260200160002060080181905550604051806040016040528084815260200183815250600360008681526020019081526020016000206000600260008881526020019081526020016000206008015481526020019081526020016000206000820151816000019080519060200190610cd4929190611323565b506020820151816001019080519060200190610cf1929190611323565b5090505050505050565b60066020528160005260406000206020528060005260406000206000915091509054906101000a900460ff1681565b6000600460003373ffffffffffffffffffffffffffffffffffffffff1673ffffffffffffffffffffffffffffffffffffffff16815260200190815260200160002060009054906101000a900460ff16905090565b60008054905090565b60015481565b60005481565b610d9b6113c3565b6002600083815260200190815260200160002060405180610160016040529081600082015481526020016001820160009054906101000a900473ffffffffffffffffffffffffffffffffffffffff1673ffffffffffffffffffffffffffffffffffffffff1673ffffffffffffffffffffffffffffffffffffffff168152602001600282018054610e2a90611d91565b80601f0160208091040260200160405190810160405280929190818152602001828054610e5690611d91565b8015610ea35780601f10610e7857610100808354040283529160200191610ea3565b820191906000526020600020905b815481529060010190602001808311610e8657829003601f168201915b50505050508152602001600382018054610ebc90611d91565b80601f0160208091040260200160405190810160405280929190818152602001828054610ee890611d91565b8015610f355780601f10610f0a57610100808354040283529160200191610f35565b820191906000526020600020905b815481529060010190602001808311610f1857829003601f168201915b50505050508152602001600482018054610f4e90611d91565b80601f0160208091040260200160405190810160405280929190818152602001828054610f7a90611d91565b8015610fc75780601f10610f9c57610100808354040283529160200191610fc7565b820191906000526020600020905b815481529060010190602001808311610faa57829003601f168201915b50505050508152602001600582018054610fe090611d91565b80601f016020809104026020016040519081016040528092919081815260200182805461100c90611d91565b80156110595780601f1061102e57610100808354040283529160200191611059565b820191906000526020600020905b81548152906001019060200180831161103c57829003601f168201915b5050505050815260200160068201805461107290611d91565b80601f016020809104026020016040519081016040528092919081815260200182805461109e90611d91565b80156110eb5780601f106110c0576101008083540402835291602001916110eb565b820191906000526020600020905b8154815290600101906020018083116110ce57829003601f168201915b5050505050815260200160078201548152602001600882015481526020016009820160009054906101000a900460ff161515151581526020016009820160019054906101000a900473ffffffffffffffffffffffffffffffffffffffff1673ffffffffffffffffffffffffffffffffffffffff1673ffffffffffffffffffffffffffffffffffffffff16815250509050919050565b600560009054906101000a900473ffffffffffffffffffffffffffffffffffffffff1673ffffffffffffffffffffffffffffffffffffffff163373ffffffffffffffffffffffffffffffffffffffff16146111da57600080fd5b60016002600084815260200190815260200160002060090160006101000a81548160ff021916908315150217905550806002600084815260200190815260200160002060090160016101000a81548173ffffffffffffffffffffffffffffffffffffffff021916908373ffffffffffffffffffffffffffffffffffffffff1602179055506001600460008373ffffffffffffffffffffffffffffffffffffffff1673ffffffffffffffffffffffffffffffffffffffff16815260200190815260200160002060006101000a81548160ff0219169083151502179055506001600660008373ffffffffffffffffffffffffffffffffffffffff1673ffffffffffffffffffffffffffffffffffffffff168152602001908152602001600020600084815260200190815260200160002060006101000a81548160ff0219169083151502179055505050565b82805461132f90611d91565b90600052602060002090601f0160209004810192826113515760008555611398565b82601f1061136a57805160ff1916838001178555611398565b82800160010185558215611398579182015b8281111561139757825182559160200191906001019061137c565b5b5090506113a5919061144b565b5090565b604051806040016040528060608152602001606081525090565b60405180610160016040528060008152602001600073ffffffffffffffffffffffffffffffffffffffff16815260200160608152602001606081526020016060815260200160608152602001606081526020016000815260200160008152602001600015158152602001600073ffffffffffffffffffffffffffffffffffffffff1681525090565b5b8082111561146457600081600090555060010161144c565b5090565b6000604051905090565b600080fd5b600080fd5b600080fd5b600080fd5b6000601f19601f8301169050919050565b7f4e487b7100000000000000000000000000000000000000000000000000000000600052604160045260246000fd5b6114cf82611486565b810181811067ffffffffffffffff821117156114ee576114ed611497565b5b80604052505050565b6000611501611468565b905061150d82826114c6565b919050565b600067ffffffffffffffff82111561152d5761152c611497565b5b61153682611486565b9050602081019050919050565b82818337600083830152505050565b600061156561156084611512565b6114f7565b90508281526020810184848401111561158157611580611481565b5b61158c848285611543565b509392505050565b600082601f8301126115a9576115a861147c565b5b81356115b9848260208601611552565b91505092915050565b600080600080608085870312156115dc576115db611472565b5b600085013567ffffffffffffffff8111156115fa576115f9611477565b5b61160687828801611594565b945050602085013567ffffffffffffffff81111561162757611626611477565b5b61163387828801611594565b935050604085013567ffffffffffffffff81111561165457611653611477565b5b61166087828801611594565b925050606085013567ffffffffffffffff81111561168157611680611477565b5b61168d87828801611594565b91505092959194509250565b6000819050919050565b6116ac81611699565b81146116b757600080fd5b50565b6000813590506116c9816116a3565b92915050565b6000602082840312156116e5576116e4611472565b5b60006116f3848285016116ba565b91505092915050565b60008115159050919050565b611711816116fc565b82525050565b600060208201905061172c6000830184611708565b92915050565b6000806040838503121561174957611748611472565b5b6000611757858286016116ba565b9250506020611768858286016116ba565b9150509250929050565b600081519050919050565b600082825260208201905092915050565b60005b838110156117ac578082015181840152602081019050611791565b838111156117bb576000848401525b50505050565b60006117cc82611772565b6117d6818561177d565b93506117e681856020860161178e565b6117ef81611486565b840191505092915050565b6000604083016000830151848203600086015261181782826117c1565b9150506020830151848203602086015261183182826117c1565b9150508091505092915050565b6000602082019050818103600083015261185881846117fa565b905092915050565b600073ffffffffffffffffffffffffffffffffffffffff82169050919050565b600061188b82611860565b9050919050565b61189b81611880565b82525050565b60006020820190506118b66000830184611892565b92915050565b600080604083850312156118d3576118d2611472565b5b60006118e1858286016116ba565b925050602083013567ffffffffffffffff81111561190257611901611477565b5b61190e85828601611594565b9150509250929050565b61192181611699565b82525050565b600082825260208201905092915050565b600061194382611772565b61194d8185611927565b935061195d81856020860161178e565b61196681611486565b840191505092915050565b600061016082019050611987600083018e611918565b611994602083018d611892565b81810360408301526119a6818c611938565b905081810360608301526119ba818b611938565b905081810360808301526119ce818a611938565b905081810360a08301526119e28189611938565b905081810360c08301526119f68188611938565b9050611a0560e0830187611918565b611a13610100830186611918565b611a21610120830185611708565b611a2f610140830184611892565b9c9b505050505050505050505050565b600080600060608486031215611a5857611a57611472565b5b6000611a66868287016116ba565b935050602084013567ffffffffffffffff811115611a8757611a86611477565b5b611a9386828701611594565b925050604084013567ffffffffffffffff811115611ab457611ab3611477565b5b611ac086828701611594565b9150509250925092565b611ad381611880565b8114611ade57600080fd5b50565b600081359050611af081611aca565b92915050565b60008060408385031215611b0d57611b0c611472565b5b6000611b1b85828601611ae1565b9250506020611b2c858286016116ba565b9150509250929050565b6000602082019050611b4b6000830184611918565b92915050565b611b5a81611699565b82525050565b611b6981611880565b82525050565b611b78816116fc565b82525050565b600061016083016000830151611b976000860182611b51565b506020830151611baa6020860182611b60565b5060408301518482036040860152611bc282826117c1565b91505060608301518482036060860152611bdc82826117c1565b91505060808301518482036080860152611bf682826117c1565b91505060a083015184820360a0860152611c1082826117c1565b91505060c083015184820360c0860152611c2a82826117c1565b91505060e0830151611c3f60e0860182611b51565b50610100830151611c54610100860182611b51565b50610120830151611c69610120860182611b6f565b50610140830151611c7e610140860182611b60565b508091505092915050565b60006020820190508181036000830152611ca38184611b7e565b905092915050565b60008060408385031215611cc257611cc1611472565b5b6000611cd0858286016116ba565b9250506020611ce185828601611ae1565b9150509250929050565b7f4e487b7100000000000000000000000000000000000000000000000000000000600052601160045260246000fd5b6000611d2582611699565b91507fffffffffffffffffffffffffffffffffffffffffffffffffffffffffffffffff8203611d5757611d56611ceb565b5b600182019050919050565b7f4e487b7100000000000000000000000000000000000000000000000000000000600052602260045260246000fd5b60006002820490506001821680611da957607f821691505b602082108103611dbc57611dbb611d62565b5b50919050565b600081905092915050565b60008190508160005260206000209050919050565b60008154611def81611d91565b611df98186611dc2565b94506001821660008114611e145760018114611e2557611e58565b60ff19831686528186019350611e58565b611e2e85611dcd565b60005b83811015611e5057815481890152600182019150602081019050611e31565b838801955050505b50505092915050565b7f0a00000000000000000000000000000000000000000000000000000000000000600082015250565b6000611e97600183611dc2565b9150611ea282611e61565b600182019050919050565b6000611eb882611772565b611ec28185611dc2565b9350611ed281856020860161178e565b80840191505092915050565b6000611eea8285611de2565b9150611ef582611e8a565b9150611f018284611ead565b91508190509392505050565b6000611f1882611699565b9150611f2383611699565b9250827fffffffffffffffffffffffffffffffffffffffffffffffffffffffffffffffff03821115611f5857611f57611ceb565b5b82820190509291505056fea264697066735822122090db90b550a61bb88eed62aaeb68d7947947b2809bcdcd4571dafb5d0a81877f64736f6c634300080e0033",
  "immutableReferences": {},
  "source": "// SPDX-License-Identifier: MIT\npragma solidity >=0.4.22 <0.9.0;\n\ncontract Complaints {\n    struct Document {\n        string name;\n        string url;\n    }\n    struct Complaint {\n        uint256 id;\n        address complainantAddress;\n        string title;\n        string complainant;\n        string contact;\n        string details;\n        string progress;\n        uint256 date;\n        uint256 numDoc;\n        bool isAssigned;\n        address assignedTo;\n    }\n\n    uint256 public complaintsCount = 0;\n    uint256 public documentsCount = 0;\n\n    mapping(uint256 => Complaint) public complaints;\n    mapping(uint256 => mapping(uint256 => Document)) documents;\n    \n    // managing officers\n    mapping(address => bool) users;\n\n    address public manager;\n    // officers complaints mappings\n    mapping(address => mapping(uint256 => bool)) public officers;\n\n    constructor() {\n        manager = msg.sender;\n    }\n\n    modifier onlyManager() {\n        require(msg.sender == manager);\n        _;\n    }\n\n    modifier authenticateOfficer(uint complaint) {\n        require(officers[msg.sender][complaint]);\n        _;\n    }\n\n    function getComplaint(\n        uint256 index\n    ) public view returns (Complaint memory) {\n        return (complaints[index]);\n    }\n\n    function isAssigned(uint256 complaint) public view returns(bool){\n        return officers[msg.sender][complaint];\n    }\n\n    function isOfficer() public view returns (bool){\n        return users[msg.sender];\n    }\n\n    function authenticate() public view returns (bool) {\n        return msg.sender == manager;\n    }\n\n    function readComplaintsCount() public view returns (uint256) {\n        return complaintsCount;\n    }\n\n    function createComplaint(\n        string memory _title,\n        string memory _complainant,\n        string memory _details,\n        string memory _contact\n    ) public {\n        complaintsCount++;\n        complaints[complaintsCount] = Complaint(\n            complaintsCount,\n            msg.sender,\n            _title,            \n            _complainant,\n            _contact, \n            _details,\n            \"Registered\",\n            block.timestamp,\n            0,false, msg.sender);\n    }\n\n    function addProgress(\n        uint256 index,\n        string memory _progress\n    ) public authenticateOfficer(index) {\n        complaints[index].progress = string(\n            abi.encodePacked(complaints[index].progress, \"\\n\", _progress)\n        );\n    }\n\n    function assignOfficer(\n        uint256 complaint,\n        address officer\n    ) public onlyManager {\n        complaints[complaint].isAssigned = true;\n        complaints[complaint].assignedTo = officer;\n        users[officer] = true;\n        officers[officer][complaint] = true;\n\n    }\n\n    function addDocument(\n        uint256 complaint,\n        string memory _name,\n        string memory _url\n    ) public authenticateOfficer(complaint) {\n        complaints[complaint].numDoc = complaints[complaint].numDoc + 1;\n        documents[complaint][complaints[complaint].numDoc] = Document(\n            _name,\n            _url\n        );\n    }\n\n    function getDocument(\n        uint256 complaint,\n        uint256 document\n    ) public view returns (Document memory) {\n        return (documents[complaint][document]);\n    }\n}\n",
  "sourcePath": "E:\\PROJECTS\\NodeJs\\NFT\\code\\truffle\\contracts\\Complaints.sol",
  "compiler": {
    "name": "solc",
    "version": "0.8.14+commit.80d49f37.Emscripten.clang"
  },
  "schemaVersion": "3.4.11",
  "updatedAt": "2023-02-06T20:45:25.389Z",
  "networkType": "ethereum",
  "devdoc": {
    "kind": "dev",
    "methods": {},
    "version": 1
  },
  "userdoc": {
    "kind": "user",
    "methods": {},
    "version": 1
  }
}